{
  "_format": "hh-sol-artifact-1",
  "contractName": "NFT",
  "sourceName": "contracts/NFT.sol",
  "abi": [
    {
      "inputs": [
        {
          "internalType": "address",
          "name": "marketplaceAddress",
          "type": "address"
        },
        {
          "internalType": "address",
          "name": "_VRFCoordinator",
          "type": "address"
        },
        {
          "internalType": "address",
          "name": "_LinkToken",
          "type": "address"
        },
        {
          "internalType": "bytes32",
          "name": "_keyHash",
          "type": "bytes32"
        },
        {
          "internalType": "uint256",
          "name": "_fee",
          "type": "uint256"
        }
      ],
      "stateMutability": "nonpayable",
      "type": "constructor"
    },
    {
      "anonymous": false,
      "inputs": [
        {
          "indexed": true,
          "internalType": "address",
          "name": "owner",
          "type": "address"
        },
        {
          "indexed": true,
          "internalType": "address",
          "name": "approved",
          "type": "address"
        },
        {
          "indexed": true,
          "internalType": "uint256",
          "name": "tokenId",
          "type": "uint256"
        }
      ],
      "name": "Approval",
      "type": "event"
    },
    {
      "anonymous": false,
      "inputs": [
        {
          "indexed": true,
          "internalType": "address",
          "name": "owner",
          "type": "address"
        },
        {
          "indexed": true,
          "internalType": "address",
          "name": "operator",
          "type": "address"
        },
        {
          "indexed": false,
          "internalType": "bool",
          "name": "approved",
          "type": "bool"
        }
      ],
      "name": "ApprovalForAll",
      "type": "event"
    },
    {
      "anonymous": false,
      "inputs": [
        {
          "indexed": true,
          "internalType": "uint256",
          "name": "tokenId",
          "type": "uint256"
        },
        {
          "indexed": false,
          "internalType": "string",
          "name": "svg",
          "type": "string"
        }
      ],
      "name": "CreatedRandomSVG",
      "type": "event"
    },
    {
      "anonymous": false,
      "inputs": [
        {
          "indexed": true,
          "internalType": "uint256",
          "name": "tokenId",
          "type": "uint256"
        },
        {
          "indexed": false,
          "internalType": "uint256",
          "name": "random",
          "type": "uint256"
        }
      ],
      "name": "CreatedUnfinishedRandomSVG",
      "type": "event"
    },
    {
      "anonymous": false,
      "inputs": [
        {
          "indexed": true,
          "internalType": "address",
          "name": "previousOwner",
          "type": "address"
        },
        {
          "indexed": true,
          "internalType": "address",
          "name": "newOwner",
          "type": "address"
        }
      ],
      "name": "OwnershipTransferred",
      "type": "event"
    },
    {
      "anonymous": false,
      "inputs": [
        {
          "indexed": true,
          "internalType": "address",
          "name": "from",
          "type": "address"
        },
        {
          "indexed": true,
          "internalType": "address",
          "name": "to",
          "type": "address"
        },
        {
          "indexed": true,
          "internalType": "uint256",
          "name": "tokenId",
          "type": "uint256"
        }
      ],
      "name": "Transfer",
      "type": "event"
    },
    {
      "anonymous": false,
      "inputs": [
        {
          "indexed": true,
          "internalType": "bytes32",
          "name": "requestId",
          "type": "bytes32"
        },
        {
          "indexed": true,
          "internalType": "uint256",
          "name": "tokenId",
          "type": "uint256"
        }
      ],
      "name": "requestedRandomSVG",
      "type": "event"
    },
    {
      "inputs": [
        {
          "internalType": "address",
          "name": "to",
          "type": "address"
        },
        {
          "internalType": "uint256",
          "name": "tokenId",
          "type": "uint256"
        }
      ],
      "name": "approve",
      "outputs": [],
      "stateMutability": "nonpayable",
      "type": "function"
    },
    {
      "inputs": [
        {
          "internalType": "address",
          "name": "owner",
          "type": "address"
        }
      ],
      "name": "balanceOf",
      "outputs": [
        {
          "internalType": "uint256",
          "name": "",
          "type": "uint256"
        }
      ],
      "stateMutability": "view",
      "type": "function"
    },
    {
      "inputs": [
        {
          "internalType": "uint256",
          "name": "",
          "type": "uint256"
        }
      ],
      "name": "bases",
      "outputs": [
        {
          "internalType": "string",
          "name": "",
          "type": "string"
        }
      ],
      "stateMutability": "view",
      "type": "function"
    },
    {
      "inputs": [],
      "name": "create",
      "outputs": [
        {
          "internalType": "bytes32",
          "name": "requestId",
          "type": "bytes32"
        }
      ],
      "stateMutability": "payable",
      "type": "function"
    },
    {
      "inputs": [
        {
          "internalType": "uint256",
          "name": "",
          "type": "uint256"
        }
      ],
      "name": "eyes",
      "outputs": [
        {
          "internalType": "string",
          "name": "",
          "type": "string"
        }
      ],
      "stateMutability": "view",
      "type": "function"
    },
    {
      "inputs": [],
      "name": "fee",
      "outputs": [
        {
          "internalType": "uint256",
          "name": "",
          "type": "uint256"
        }
      ],
      "stateMutability": "view",
      "type": "function"
    },
    {
      "inputs": [
        {
          "internalType": "uint256",
          "name": "tokenId",
          "type": "uint256"
        },
        {
          "internalType": "string",
          "name": "_d_params",
          "type": "string"
        },
        {
          "internalType": "string",
          "name": "_svgname",
          "type": "string"
        },
        {
          "internalType": "string",
          "name": "_description",
          "type": "string"
        },
        {
          "internalType": "string",
          "name": "_color",
          "type": "string"
        }
      ],
      "name": "finishMint",
      "outputs": [],
      "stateMutability": "nonpayable",
      "type": "function"
    },
    {
      "inputs": [
        {
          "internalType": "string",
          "name": "_imageURI",
          "type": "string"
        },
        {
          "internalType": "uint256",
          "name": "tokenID",
          "type": "uint256"
        },
        {
          "internalType": "string",
          "name": "_name",
          "type": "string"
        },
        {
          "internalType": "string",
          "name": "_description",
          "type": "string"
        },
        {
          "internalType": "uint256",
          "name": "_random",
          "type": "uint256"
        }
      ],
      "name": "formatTokenURI",
      "outputs": [
        {
          "internalType": "string",
          "name": "",
          "type": "string"
        }
      ],
      "stateMutability": "view",
      "type": "function"
    },
    {
      "inputs": [
        {
          "internalType": "uint256",
          "name": "tokenId",
          "type": "uint256"
        },
        {
          "internalType": "string",
          "name": "_d_params",
          "type": "string"
        },
        {
          "internalType": "string",
          "name": "_name",
          "type": "string"
        },
        {
          "internalType": "string",
          "name": "_description",
          "type": "string"
        },
        {
          "internalType": "string",
          "name": "_color",
          "type": "string"
        },
        {
          "internalType": "uint256",
          "name": "_random",
          "type": "uint256"
        }
      ],
      "name": "generateAyekiluaSVG",
      "outputs": [
        {
          "internalType": "string",
          "name": "_generatedSVG",
          "type": "string"
        }
      ],
      "stateMutability": "pure",
      "type": "function"
    },
    {
      "inputs": [
        {
          "internalType": "uint256",
          "name": "tokenId",
          "type": "uint256"
        }
      ],
      "name": "getApproved",
      "outputs": [
        {
          "internalType": "address",
          "name": "",
          "type": "address"
        }
      ],
      "stateMutability": "view",
      "type": "function"
    },
    {
      "inputs": [
        {
          "internalType": "address",
          "name": "owner",
          "type": "address"
        },
        {
          "internalType": "address",
          "name": "operator",
          "type": "address"
        }
      ],
      "name": "isApprovedForAll",
      "outputs": [
        {
          "internalType": "bool",
          "name": "",
          "type": "bool"
        }
      ],
      "stateMutability": "view",
      "type": "function"
    },
    {
      "inputs": [],
      "name": "keyHash",
      "outputs": [
        {
          "internalType": "bytes32",
          "name": "",
          "type": "bytes32"
        }
      ],
      "stateMutability": "view",
      "type": "function"
    },
    {
      "inputs": [
        {
          "internalType": "uint256",
          "name": "",
          "type": "uint256"
        }
      ],
      "name": "mouths",
      "outputs": [
        {
          "internalType": "string",
          "name": "",
          "type": "string"
        }
      ],
      "stateMutability": "view",
      "type": "function"
    },
    {
      "inputs": [],
      "name": "name",
      "outputs": [
        {
          "internalType": "string",
          "name": "",
          "type": "string"
        }
      ],
      "stateMutability": "view",
      "type": "function"
    },
    {
      "inputs": [],
      "name": "owner",
      "outputs": [
        {
          "internalType": "address",
          "name": "",
          "type": "address"
        }
      ],
      "stateMutability": "view",
      "type": "function"
    },
    {
      "inputs": [
        {
          "internalType": "uint256",
          "name": "tokenId",
          "type": "uint256"
        }
      ],
      "name": "ownerOf",
      "outputs": [
        {
          "internalType": "address",
          "name": "",
          "type": "address"
        }
      ],
      "stateMutability": "view",
      "type": "function"
    },
    {
      "inputs": [],
      "name": "price",
      "outputs": [
        {
          "internalType": "uint256",
          "name": "",
          "type": "uint256"
        }
      ],
      "stateMutability": "view",
      "type": "function"
    },
    {
      "inputs": [
        {
          "internalType": "bytes32",
          "name": "requestId",
          "type": "bytes32"
        },
        {
          "internalType": "uint256",
          "name": "randomness",
          "type": "uint256"
        }
      ],
      "name": "rawFulfillRandomness",
      "outputs": [],
      "stateMutability": "nonpayable",
      "type": "function"
    },
    {
      "inputs": [],
      "name": "renounceOwnership",
      "outputs": [],
      "stateMutability": "nonpayable",
      "type": "function"
    },
    {
      "inputs": [
        {
          "internalType": "bytes32",
          "name": "",
          "type": "bytes32"
        }
      ],
      "name": "requestIdToSender",
      "outputs": [
        {
          "internalType": "address",
          "name": "",
          "type": "address"
        }
      ],
      "stateMutability": "view",
      "type": "function"
    },
    {
      "inputs": [
        {
          "internalType": "bytes32",
          "name": "",
          "type": "bytes32"
        }
      ],
      "name": "requestIdToToken",
      "outputs": [
        {
          "internalType": "uint256",
          "name": "",
          "type": "uint256"
        }
      ],
      "stateMutability": "view",
      "type": "function"
    },
    {
      "inputs": [
        {
          "internalType": "address",
          "name": "from",
          "type": "address"
        },
        {
          "internalType": "address",
          "name": "to",
          "type": "address"
        },
        {
          "internalType": "uint256",
          "name": "tokenId",
          "type": "uint256"
        }
      ],
      "name": "safeTransferFrom",
      "outputs": [],
      "stateMutability": "nonpayable",
      "type": "function"
    },
    {
      "inputs": [
        {
          "internalType": "address",
          "name": "from",
          "type": "address"
        },
        {
          "internalType": "address",
          "name": "to",
          "type": "address"
        },
        {
          "internalType": "uint256",
          "name": "tokenId",
          "type": "uint256"
        },
        {
          "internalType": "bytes",
          "name": "_data",
          "type": "bytes"
        }
      ],
      "name": "safeTransferFrom",
      "outputs": [],
      "stateMutability": "nonpayable",
      "type": "function"
    },
    {
      "inputs": [
        {
          "internalType": "address",
          "name": "operator",
          "type": "address"
        },
        {
          "internalType": "bool",
          "name": "approved",
          "type": "bool"
        }
      ],
      "name": "setApprovalForAll",
      "outputs": [],
      "stateMutability": "nonpayable",
      "type": "function"
    },
    {
      "inputs": [
        {
          "internalType": "bytes4",
          "name": "interfaceId",
          "type": "bytes4"
        }
      ],
      "name": "supportsInterface",
      "outputs": [
        {
          "internalType": "bool",
          "name": "",
          "type": "bool"
        }
      ],
      "stateMutability": "view",
      "type": "function"
    },
    {
      "inputs": [
        {
          "internalType": "string",
          "name": "_svg",
          "type": "string"
        }
      ],
      "name": "svgToImageURI",
      "outputs": [
        {
          "internalType": "string",
          "name": "",
          "type": "string"
        }
      ],
      "stateMutability": "pure",
      "type": "function"
    },
    {
      "inputs": [],
      "name": "symbol",
      "outputs": [
        {
          "internalType": "string",
          "name": "",
          "type": "string"
        }
      ],
      "stateMutability": "view",
      "type": "function"
    },
    {
      "inputs": [],
      "name": "tokenCounter",
      "outputs": [
        {
          "internalType": "uint256",
          "name": "",
          "type": "uint256"
        }
      ],
      "stateMutability": "view",
      "type": "function"
    },
    {
      "inputs": [
        {
          "internalType": "uint256",
          "name": "",
          "type": "uint256"
        }
      ],
      "name": "tokenIdToRandomNumber",
      "outputs": [
        {
          "internalType": "uint256",
          "name": "",
          "type": "uint256"
        }
      ],
      "stateMutability": "view",
      "type": "function"
    },
    {
      "inputs": [
        {
          "internalType": "uint256",
          "name": "tokenId",
          "type": "uint256"
        }
      ],
      "name": "tokenURI",
      "outputs": [
        {
          "internalType": "string",
          "name": "",
          "type": "string"
        }
      ],
      "stateMutability": "view",
      "type": "function"
    },
    {
      "inputs": [
        {
          "internalType": "address",
          "name": "from",
          "type": "address"
        },
        {
          "internalType": "address",
          "name": "to",
          "type": "address"
        },
        {
          "internalType": "uint256",
          "name": "tokenId",
          "type": "uint256"
        }
      ],
      "name": "transferFrom",
      "outputs": [],
      "stateMutability": "nonpayable",
      "type": "function"
    },
    {
      "inputs": [
        {
          "internalType": "address",
          "name": "newOwner",
          "type": "address"
        }
      ],
      "name": "transferOwnership",
      "outputs": [],
      "stateMutability": "nonpayable",
      "type": "function"
    },
    {
      "inputs": [],
      "name": "withdraw",
      "outputs": [],
      "stateMutability": "payable",
      "type": "function"
    }
  ],
  "bytecode": "0x60c06040523480156200001157600080fd5b5060405162006c9138038062006c91833981810160405281019062000037919062000f42565b83836040518060400160405280600d81526020017f4179656b696c756173204e4654000000000000000000000000000000000000008152506040518060400160405280600981526020017f4159454b494c55415300000000000000000000000000000000000000000000008152508160009080519060200190620000bd92919062000caa565b508060019080519060200190620000d692919062000caa565b5050508173ffffffffffffffffffffffffffffffffffffffff1660a08173ffffffffffffffffffffffffffffffffffffffff1660601b815250508073ffffffffffffffffffffffffffffffffffffffff1660808173ffffffffffffffffffffffffffffffffffffffff1660601b815250505050620001696200015d62000bdc60201b60201c565b62000be460201b60201c565b84600960006101000a81548173ffffffffffffffffffffffffffffffffffffffff021916908373ffffffffffffffffffffffffffffffffffffffff1602179055506000600a8190555081600b8190555080600c819055506658d15e17628000600d81905550604051806103e001604052806040518060400160405280600781526020017f61786f6c6f746c0000000000000000000000000000000000000000000000000081525081526020016040518060400160405280600781526020017f61786f6c6f746c0000000000000000000000000000000000000000000000000081525081526020016040518060400160405280600a81526020017f73616c616d616e6472610000000000000000000000000000000000000000000081525081526020016040518060400160405280600781526020017f616a6f6c6f74650000000000000000000000000000000000000000000000000081525081526020016040518060400160405280600a81526020017f73616c616d616e6472610000000000000000000000000000000000000000000081525081526020016040518060400160405280600781526020017f616a6f6c6f74650000000000000000000000000000000000000000000000000081525081526020016040518060400160405280600a81526020017f73616c616d616e6472610000000000000000000000000000000000000000000081525081526020016040518060400160405280600781526020017f616a6f6c6f74650000000000000000000000000000000000000000000000000081525081526020016040518060400160405280600a81526020017f73616c616d616e6472610000000000000000000000000000000000000000000081525081526020016040518060400160405280600781526020017f616a6f6c6f74650000000000000000000000000000000000000000000000000081525081526020016040518060400160405280600681526020017f786f6c6f746c000000000000000000000000000000000000000000000000000081525081526020016040518060400160405280600681526020017f786f6c6f746c000000000000000000000000000000000000000000000000000081525081526020016040518060400160405280600a81526020017f73616c616d616e6472610000000000000000000000000000000000000000000081525081526020016040518060400160405280600781526020017f616a6f6c6f74650000000000000000000000000000000000000000000000000081525081526020016040518060400160405280600a81526020017f73616c616d616e6472610000000000000000000000000000000000000000000081525081526020016040518060400160405280600781526020017f616a6f6c6f74650000000000000000000000000000000000000000000000000081525081526020016040518060400160405280600a81526020017f73616c616d616e6472610000000000000000000000000000000000000000000081525081526020016040518060400160405280600781526020017f616a6f6c6f74650000000000000000000000000000000000000000000000000081525081526020016040518060400160405280600781526020017f616a6f6c6f74650000000000000000000000000000000000000000000000000081525081526020016040518060400160405280600881526020017f6d65786f6c6f746c00000000000000000000000000000000000000000000000081525081526020016040518060400160405280600881526020017f6d65786f6c6f746c00000000000000000000000000000000000000000000000081525081526020016040518060400160405280600a81526020017f73616c616d616e6472610000000000000000000000000000000000000000000081525081526020016040518060400160405280600781526020017f616a6f6c6f74650000000000000000000000000000000000000000000000000081525081526020016040518060400160405280600a81526020017f73616c616d616e6472610000000000000000000000000000000000000000000081525081526020016040518060400160405280600781526020017f616a6f6c6f74650000000000000000000000000000000000000000000000000081525081526020016040518060400160405280600a81526020017f73616c616d616e6472610000000000000000000000000000000000000000000081525081526020016040518060400160405280600781526020017f616a6f6c6f74650000000000000000000000000000000000000000000000000081525081526020016040518060400160405280600781526020017f616a6f6c6f74650000000000000000000000000000000000000000000000000081525081526020016040518060400160405280600a81526020017f73616c616d616e6472610000000000000000000000000000000000000000000081525081526020016040518060400160405280600a81526020017f73616c616d616e6472610000000000000000000000000000000000000000000081525081526020016040518060400160405280601381526020017f616d627973746f6d61206d65786963616e756d00000000000000000000000000815250815250600e90601f6200090f92919062000d3b565b506040518060a001604052806040518060400160405280600381526020017f626967000000000000000000000000000000000000000000000000000000000081525081526020016040518060400160405280600581526020017f736d616c6c00000000000000000000000000000000000000000000000000000081525081526020016040518060400160405280600581526020017f6c6172676500000000000000000000000000000000000000000000000000000081525081526020016040518060400160405280600681526020017f666c69727479000000000000000000000000000000000000000000000000000081525081526020016040518060400160405280600881526020017f7365647563746f72000000000000000000000000000000000000000000000000815250815250600f90600562000a5292919062000da2565b506040518060c001604052806040518060400160405280600581526020017f736d696c7900000000000000000000000000000000000000000000000000000081525081526020016040518060400160405280600381526020017f736164000000000000000000000000000000000000000000000000000000000081525081526020016040518060400160405280600481526020017f6f70656e0000000000000000000000000000000000000000000000000000000081525081526020016040518060400160405280600481526020017f666c61740000000000000000000000000000000000000000000000000000000081525081526020016040518060400160405280600981526020017f6c6970732062697465000000000000000000000000000000000000000000000081525081526020016040518060400160405280600481526020017f6b69737300000000000000000000000000000000000000000000000000000000815250815250601090600662000bd092919062000e09565b505050505050620010bf565b600033905090565b6000600860009054906101000a900473ffffffffffffffffffffffffffffffffffffffff16905081600860006101000a81548173ffffffffffffffffffffffffffffffffffffffff021916908373ffffffffffffffffffffffffffffffffffffffff1602179055508173ffffffffffffffffffffffffffffffffffffffff168173ffffffffffffffffffffffffffffffffffffffff167f8be0079c531659141344cd1fd0a4f28419497f9722a3daafe3b4186f6b6457e060405160405180910390a35050565b82805462000cb8906200100c565b90600052602060002090601f01602090048101928262000cdc576000855562000d28565b82601f1062000cf757805160ff191683800117855562000d28565b8280016001018555821562000d28579182015b8281111562000d2757825182559160200191906001019062000d0a565b5b50905062000d37919062000e70565b5090565b82805482825590600052602060002090810192821562000d8f579160200282015b8281111562000d8e57825182908051906020019062000d7d92919062000caa565b509160200191906001019062000d5c565b5b50905062000d9e919062000e8f565b5090565b82805482825590600052602060002090810192821562000df6579160200282015b8281111562000df557825182908051906020019062000de492919062000caa565b509160200191906001019062000dc3565b5b50905062000e05919062000e8f565b5090565b82805482825590600052602060002090810192821562000e5d579160200282015b8281111562000e5c57825182908051906020019062000e4b92919062000caa565b509160200191906001019062000e2a565b5b50905062000e6c919062000e8f565b5090565b5b8082111562000e8b57600081600090555060010162000e71565b5090565b5b8082111562000eb3576000818162000ea9919062000eb7565b5060010162000e90565b5090565b50805462000ec5906200100c565b6000825580601f1062000ed9575062000efa565b601f01602090049060005260206000209081019062000ef9919062000e70565b5b50565b60008151905062000f0e8162001071565b92915050565b60008151905062000f25816200108b565b92915050565b60008151905062000f3c81620010a5565b92915050565b600080600080600060a0868803121562000f5b57600080fd5b600062000f6b8882890162000efd565b955050602062000f7e8882890162000efd565b945050604062000f918882890162000efd565b935050606062000fa48882890162000f14565b925050608062000fb78882890162000f2b565b9150509295509295909350565b600062000fd18262000fe2565b9050919050565b6000819050919050565b600073ffffffffffffffffffffffffffffffffffffffff82169050919050565b6000819050919050565b600060028204905060018216806200102557607f821691505b602082108114156200103c576200103b62001042565b5b50919050565b7f4e487b7100000000000000000000000000000000000000000000000000000000600052602260045260246000fd5b6200107c8162000fc4565b81146200108857600080fd5b50565b620010968162000fd8565b8114620010a257600080fd5b50565b620010b08162001002565b8114620010bc57600080fd5b50565b60805160601c60a05160601c615b98620010f96000396000818161113901526128d3015260008181611a9401526128970152615b986000f3fe6080604052600436106101ee5760003560e01c80638da5cb5b1161010d578063a9fe9979116100a0578063d082e3811161006f578063d082e38114610760578063ddca3f431461078b578063e985e9c5146107b6578063efc81a8c146107f3578063f2fde38b14610811576101ee565b8063a9fe997914610694578063b88d4fde146106d1578063c76e9b23146106fa578063c87b56dd14610723576101ee565b80639c1cd795116100dc5780639c1cd795146105c6578063a035b1fe14610603578063a22cb4651461062e578063a3053dd514610657576101ee565b80638da5cb5b1461050a57806390f1d5dc1461053557806394985ddd1461057257806395d89b411461059b576101ee565b80633ccfd60b116101855780636d883bd9116101545780636d883bd91461043c57806370a0823114610479578063715018a6146104b657806372041848146104cd576101ee565b80633ccfd60b146103a157806342842e0e146103ab57806361728f39146103d45780636352211e146103ff576101ee565b8063219c0eee116101c1578063219c0eee146102c157806323b872dd146102fe57806327dcb0321461032757806330d871c614610364576101ee565b806301ffc9a7146101f357806306fdde0314610230578063081812fc1461025b578063095ea7b314610298575b600080fd5b3480156101ff57600080fd5b5061021a60048036038101906102159190613457565b61083a565b60405161022791906144ef565b60405180910390f35b34801561023c57600080fd5b5061024561091c565b6040516102529190614593565b60405180910390f35b34801561026757600080fd5b50610282600480360381019061027d91906135a9565b6109ae565b60405161028f919061444a565b60405180910390f35b3480156102a457600080fd5b506102bf60048036038101906102ba919061338d565b610a33565b005b3480156102cd57600080fd5b506102e860048036038101906102e391906133f2565b610b4b565b6040516102f5919061444a565b60405180910390f35b34801561030a57600080fd5b5061032560048036038101906103209190613287565b610b7e565b005b34801561033357600080fd5b5061034e600480360381019061034991906136d2565b610bde565b60405161035b9190614593565b60405180910390f35b34801561037057600080fd5b5061038b600480360381019061038691906134a9565b610c26565b6040516103989190614593565b60405180910390f35b6103a9610cb9565b005b3480156103b757600080fd5b506103d260048036038101906103cd9190613287565b610d85565b005b3480156103e057600080fd5b506103e9610da5565b6040516103f6919061450a565b60405180910390f35b34801561040b57600080fd5b50610426600480360381019061042191906135a9565b610dab565b604051610433919061444a565b60405180910390f35b34801561044857600080fd5b50610463600480360381019061045e91906133f2565b610e5d565b60405161047091906148b5565b60405180910390f35b34801561048557600080fd5b506104a0600480360381019061049b9190613222565b610e75565b6040516104ad91906148b5565b60405180910390f35b3480156104c257600080fd5b506104cb610f2d565b005b3480156104d957600080fd5b506104f460048036038101906104ef91906135a9565b610fb5565b6040516105019190614593565b60405180910390f35b34801561051657600080fd5b5061051f611061565b60405161052c919061444a565b60405180910390f35b34801561054157600080fd5b5061055c600480360381019061055791906135a9565b61108b565b6040516105699190614593565b60405180910390f35b34801561057e57600080fd5b506105996004803603810190610594919061341b565b611137565b005b3480156105a757600080fd5b506105b06111d3565b6040516105bd9190614593565b60405180910390f35b3480156105d257600080fd5b506105ed60048036038101906105e891906135a9565b611265565b6040516105fa91906148b5565b60405180910390f35b34801561060f57600080fd5b5061061861127d565b60405161062591906148b5565b60405180910390f35b34801561063a57600080fd5b5061065560048036038101906106509190613351565b611283565b005b34801561066357600080fd5b5061067e600480360381019061067991906135a9565b611404565b60405161068b9190614593565b60405180910390f35b3480156106a057600080fd5b506106bb60048036038101906106b691906134ea565b6114b0565b6040516106c89190614593565b60405180910390f35b3480156106dd57600080fd5b506106f860048036038101906106f391906132d6565b61164b565b005b34801561070657600080fd5b50610721600480360381019061071c91906135fb565b6116ad565b005b34801561072f57600080fd5b5061074a600480360381019061074591906135a9565b611856565b6040516107579190614593565b60405180910390f35b34801561076c57600080fd5b506107756119a8565b60405161078291906148b5565b60405180910390f35b34801561079757600080fd5b506107a06119ae565b6040516107ad91906148b5565b60405180910390f35b3480156107c257600080fd5b506107dd60048036038101906107d8919061324b565b6119b4565b6040516107ea91906144ef565b60405180910390f35b6107fb611a48565b604051610808919061450a565b60405180910390f35b34801561081d57600080fd5b5061083860048036038101906108339190613222565b611c46565b005b60007f80ac58cd000000000000000000000000000000000000000000000000000000007bffffffffffffffffffffffffffffffffffffffffffffffffffffffff1916827bffffffffffffffffffffffffffffffffffffffffffffffffffffffff1916148061090557507f5b5e139f000000000000000000000000000000000000000000000000000000007bffffffffffffffffffffffffffffffffffffffffffffffffffffffff1916827bffffffffffffffffffffffffffffffffffffffffffffffffffffffff1916145b80610915575061091482611d3e565b5b9050919050565b60606000805461092b90614bc8565b80601f016020809104026020016040519081016040528092919081815260200182805461095790614bc8565b80156109a45780601f10610979576101008083540402835291602001916109a4565b820191906000526020600020905b81548152906001019060200180831161098757829003601f168201915b5050505050905090565b60006109b982611da8565b6109f8576040517f08c379a00000000000000000000000000000000000000000000000000000000081526004016109ef906147b5565b60405180910390fd5b6004600083815260200190815260200160002060009054906101000a900473ffffffffffffffffffffffffffffffffffffffff169050919050565b6000610a3e82610dab565b90508073ffffffffffffffffffffffffffffffffffffffff168373ffffffffffffffffffffffffffffffffffffffff161415610aaf576040517f08c379a0000000000000000000000000000000000000000000000000000000008152600401610aa690614855565b60405180910390fd5b8073ffffffffffffffffffffffffffffffffffffffff16610ace611e14565b73ffffffffffffffffffffffffffffffffffffffff161480610afd5750610afc81610af7611e14565b6119b4565b5b610b3c576040517f08c379a0000000000000000000000000000000000000000000000000000000008152600401610b33906146b5565b60405180910390fd5b610b468383611e1c565b505050565b60116020528060005260406000206000915054906101000a900473ffffffffffffffffffffffffffffffffffffffff1681565b610b8f610b89611e14565b82611ed5565b610bce576040517f08c379a0000000000000000000000000000000000000000000000000000000008152600401610bc590614875565b60405180910390fd5b610bd9838383611fb3565b505050565b60608284610beb8461220f565b610bf48a61220f565b888a604051602001610c0b969594939291906141bf565b60405160208183030381529060405290509695505050505050565b606060006040518060400160405280601a81526020017f646174613a696d6167652f7376672b786d6c3b6261736536342c00000000000081525090506000610c8c84604051602001610c789190614184565b6040516020818303038152906040526123e4565b90508181604051602001610ca192919061419b565b60405160208183030381529060405292505050919050565b610cc1611e14565b73ffffffffffffffffffffffffffffffffffffffff16610cdf611061565b73ffffffffffffffffffffffffffffffffffffffff1614610d35576040517f08c379a0000000000000000000000000000000000000000000000000000000008152600401610d2c906147d5565b60405180910390fd5b610d3d611061565b73ffffffffffffffffffffffffffffffffffffffff166108fc479081150290604051600060405180830381858888f19350505050158015610d82573d6000803e3d6000fd5b50565b610da08383836040518060200160405280600081525061164b565b505050565b600b5481565b6000806002600084815260200190815260200160002060009054906101000a900473ffffffffffffffffffffffffffffffffffffffff169050600073ffffffffffffffffffffffffffffffffffffffff168173ffffffffffffffffffffffffffffffffffffffff161415610e54576040517f08c379a0000000000000000000000000000000000000000000000000000000008152600401610e4b90614715565b60405180910390fd5b80915050919050565b60126020528060005260406000206000915090505481565b60008073ffffffffffffffffffffffffffffffffffffffff168273ffffffffffffffffffffffffffffffffffffffff161415610ee6576040517f08c379a0000000000000000000000000000000000000000000000000000000008152600401610edd906146f5565b60405180910390fd5b600360008373ffffffffffffffffffffffffffffffffffffffff1673ffffffffffffffffffffffffffffffffffffffff168152602001908152602001600020549050919050565b610f35611e14565b73ffffffffffffffffffffffffffffffffffffffff16610f53611061565b73ffffffffffffffffffffffffffffffffffffffff1614610fa9576040517f08c379a0000000000000000000000000000000000000000000000000000000008152600401610fa0906147d5565b60405180910390fd5b610fb3600061258f565b565b600e8181548110610fc557600080fd5b906000526020600020016000915090508054610fe090614bc8565b80601f016020809104026020016040519081016040528092919081815260200182805461100c90614bc8565b80156110595780601f1061102e57610100808354040283529160200191611059565b820191906000526020600020905b81548152906001019060200180831161103c57829003601f168201915b505050505081565b6000600860009054906101000a900473ffffffffffffffffffffffffffffffffffffffff16905090565b6010818154811061109b57600080fd5b9060005260206000200160009150905080546110b690614bc8565b80601f01602080910402602001604051908101604052809291908181526020018280546110e290614bc8565b801561112f5780601f106111045761010080835404028352916020019161112f565b820191906000526020600020905b81548152906001019060200180831161111257829003601f168201915b505050505081565b7f000000000000000000000000000000000000000000000000000000000000000073ffffffffffffffffffffffffffffffffffffffff163373ffffffffffffffffffffffffffffffffffffffff16146111c5576040517f08c379a00000000000000000000000000000000000000000000000000000000081526004016111bc90614835565b60405180910390fd5b6111cf8282612655565b5050565b6060600180546111e290614bc8565b80601f016020809104026020016040519081016040528092919081815260200182805461120e90614bc8565b801561125b5780601f106112305761010080835404028352916020019161125b565b820191906000526020600020905b81548152906001019060200180831161123e57829003601f168201915b5050505050905090565b60136020528060005260406000206000915090505481565b600d5481565b61128b611e14565b73ffffffffffffffffffffffffffffffffffffffff168273ffffffffffffffffffffffffffffffffffffffff1614156112f9576040517f08c379a00000000000000000000000000000000000000000000000000000000081526004016112f090614655565b60405180910390fd5b8060056000611306611e14565b73ffffffffffffffffffffffffffffffffffffffff1673ffffffffffffffffffffffffffffffffffffffff16815260200190815260200160002060008473ffffffffffffffffffffffffffffffffffffffff1673ffffffffffffffffffffffffffffffffffffffff16815260200190815260200160002060006101000a81548160ff0219169083151502179055508173ffffffffffffffffffffffffffffffffffffffff166113b3611e14565b73ffffffffffffffffffffffffffffffffffffffff167f17307eab39ab6107e8899845ad3d59bd9653f200f220920489ca2b5937696c31836040516113f891906144ef565b60405180910390a35050565b600f818154811061141457600080fd5b90600052602060002001600091509050805461142f90614bc8565b80601f016020809104026020016040519081016040528092919081815260200182805461145b90614bc8565b80156114a85780601f1061147d576101008083540402835291602001916114a8565b820191906000526020600020905b81548152906001019060200180831161148b57829003601f168201915b505050505081565b606060006040518060400160405280601d81526020017f646174613a6170706c69636174696f6e2f6a736f6e3b6261736536342c00000081525090508061161f6114f98861220f565b8787600e80805490508961150d9190614c88565b81548110611544577f4e487b7100000000000000000000000000000000000000000000000000000000600052603260045260246000fd5b90600052602060002001600f80805490508a6115609190614c88565b81548110611597577f4e487b7100000000000000000000000000000000000000000000000000000000600052603260045260246000fd5b90600052602060002001601080805490508b6115b39190614c88565b815481106115ea577f4e487b7100000000000000000000000000000000000000000000000000000000600052603260045260246000fd5b906000526020600020018e60405160200161160b97969594939291906142dd565b6040516020818303038152906040526123e4565b60405160200161163092919061419b565b60405160208183030381529060405291505095945050505050565b61165c611656611e14565b83611ed5565b61169b576040517f08c379a000000000000000000000000000000000000000000000000000000000815260040161169290614875565b60405180910390fd5b6116a784848484612705565b50505050565b60006116b886611856565b5111156116fa576040517f08c379a00000000000000000000000000000000000000000000000000000000081526004016116f190614675565b60405180910390fd5b84600a541161173e576040517f08c379a000000000000000000000000000000000000000000000000000000000815260040161173590614755565b60405180910390fd5b6000601360008781526020019081526020016000205411611794576040517f08c379a000000000000000000000000000000000000000000000000000000000815260040161178b90614615565b60405180910390fd5b60006013600087815260200190815260200160002054905060006117bc878787878787610bde565b905060006117c982610c26565b905060006117da828a8989886114b0565b90506117e68982612761565b611813600960009054906101000a900473ffffffffffffffffffffffffffffffffffffffff166001611283565b887f15a6487b7915a7116ce2a61d43b17e9b47484b1931f3c79f2f3d139b307b3893846040516118439190614593565b60405180910390a2505050505050505050565b606061186182611da8565b6118a0576040517f08c379a000000000000000000000000000000000000000000000000000000000815260040161189790614795565b60405180910390fd5b60006006600084815260200190815260200160002080546118c090614bc8565b80601f01602080910402602001604051908101604052809291908181526020018280546118ec90614bc8565b80156119395780601f1061190e57610100808354040283529160200191611939565b820191906000526020600020905b81548152906001019060200180831161191c57829003601f168201915b50505050509050600061194a6127d5565b90506000815114156119605781925050506119a3565b60008251111561199557808260405160200161197d92919061419b565b604051602081830303815290604052925050506119a3565b61199e846127ec565b925050505b919050565b600a5481565b600c5481565b6000600560008473ffffffffffffffffffffffffffffffffffffffff1673ffffffffffffffffffffffffffffffffffffffff16815260200190815260200160002060008373ffffffffffffffffffffffffffffffffffffffff1673ffffffffffffffffffffffffffffffffffffffff16815260200190815260200160002060009054906101000a900460ff16905092915050565b6000600d54341015611a8f576040517f08c379a0000000000000000000000000000000000000000000000000000000008152600401611a86906146d5565b60405180910390fd5b600c547f000000000000000000000000000000000000000000000000000000000000000073ffffffffffffffffffffffffffffffffffffffff166370a08231306040518263ffffffff1660e01b8152600401611aeb919061444a565b60206040518083038186803b158015611b0357600080fd5b505afa158015611b17573d6000803e3d6000fd5b505050506040513d601f19601f82011682018060405250810190611b3b91906135d2565b1015611b7c576040517f08c379a0000000000000000000000000000000000000000000000000000000008152600401611b7390614895565b60405180910390fd5b611b8a600b54600c54612893565b9050336011600083815260200190815260200160002060006101000a81548173ffffffffffffffffffffffffffffffffffffffff021916908373ffffffffffffffffffffffffffffffffffffffff160217905550600a5460126000838152602001908152602001600020819055506000600a5490506001600a54611c0e91906149af565b600a8190555080827fb97343f1f2afc4959f818046ccae28fd7b05fcd2b7a7dc651cbb52a096cae03560405160405180910390a35090565b611c4e611e14565b73ffffffffffffffffffffffffffffffffffffffff16611c6c611061565b73ffffffffffffffffffffffffffffffffffffffff1614611cc2576040517f08c379a0000000000000000000000000000000000000000000000000000000008152600401611cb9906147d5565b60405180910390fd5b600073ffffffffffffffffffffffffffffffffffffffff168173ffffffffffffffffffffffffffffffffffffffff161415611d32576040517f08c379a0000000000000000000000000000000000000000000000000000000008152600401611d29906145d5565b60405180910390fd5b611d3b8161258f565b50565b60007f01ffc9a7000000000000000000000000000000000000000000000000000000007bffffffffffffffffffffffffffffffffffffffffffffffffffffffff1916827bffffffffffffffffffffffffffffffffffffffffffffffffffffffff1916149050919050565b60008073ffffffffffffffffffffffffffffffffffffffff166002600084815260200190815260200160002060009054906101000a900473ffffffffffffffffffffffffffffffffffffffff1673ffffffffffffffffffffffffffffffffffffffff1614159050919050565b600033905090565b816004600083815260200190815260200160002060006101000a81548173ffffffffffffffffffffffffffffffffffffffff021916908373ffffffffffffffffffffffffffffffffffffffff160217905550808273ffffffffffffffffffffffffffffffffffffffff16611e8f83610dab565b73ffffffffffffffffffffffffffffffffffffffff167f8c5be1e5ebec7d5bd14f71427d1e84f3dd0314c0f7b2291e5b200ac8c7c3b92560405160405180910390a45050565b6000611ee082611da8565b611f1f576040517f08c379a0000000000000000000000000000000000000000000000000000000008152600401611f1690614695565b60405180910390fd5b6000611f2a83610dab565b90508073ffffffffffffffffffffffffffffffffffffffff168473ffffffffffffffffffffffffffffffffffffffff161480611f9957508373ffffffffffffffffffffffffffffffffffffffff16611f81846109ae565b73ffffffffffffffffffffffffffffffffffffffff16145b80611faa5750611fa981856119b4565b5b91505092915050565b8273ffffffffffffffffffffffffffffffffffffffff16611fd382610dab565b73ffffffffffffffffffffffffffffffffffffffff1614612029576040517f08c379a0000000000000000000000000000000000000000000000000000000008152600401612020906147f5565b60405180910390fd5b600073ffffffffffffffffffffffffffffffffffffffff168273ffffffffffffffffffffffffffffffffffffffff161415612099576040517f08c379a000000000000000000000000000000000000000000000000000000000815260040161209090614635565b60405180910390fd5b6120a48383836129f5565b6120af600082611e1c565b6001600360008573ffffffffffffffffffffffffffffffffffffffff1673ffffffffffffffffffffffffffffffffffffffff16815260200190815260200160002060008282546120ff9190614ac7565b925050819055506001600360008473ffffffffffffffffffffffffffffffffffffffff1673ffffffffffffffffffffffffffffffffffffffff168152602001908152602001600020600082825461215691906149af565b92505081905550816002600083815260200190815260200160002060006101000a81548173ffffffffffffffffffffffffffffffffffffffff021916908373ffffffffffffffffffffffffffffffffffffffff160217905550808273ffffffffffffffffffffffffffffffffffffffff168473ffffffffffffffffffffffffffffffffffffffff167fddf252ad1be2c89b69c2b068fc378daa952ba7f163c4a11628f55a4df523b3ef60405160405180910390a4505050565b60606000821415612257576040518060400160405280600181526020017f300000000000000000000000000000000000000000000000000000000000000081525090506123df565b600082905060005b6000821461228957808061227290614c2b565b915050600a826122829190614a3c565b915061225f565b60008167ffffffffffffffff8111156122cb577f4e487b7100000000000000000000000000000000000000000000000000000000600052604160045260246000fd5b6040519080825280601f01601f1916602001820160405280156122fd5781602001600182028036833780820191505090505b50905060008290505b600086146123d75760018161231b9190614ac7565b90506000600a808861232d9190614a3c565b6123379190614a6d565b876123429190614ac7565b603061234e9190614a05565b905060008160f81b905080848481518110612392577f4e487b7100000000000000000000000000000000000000000000000000000000600052603260045260246000fd5b60200101907effffffffffffffffffffffffffffffffffffffffffffffffffffffffffffff1916908160001a905350600a886123ce9190614a3c565b97505050612306565b819450505050505b919050565b60606000825114156124075760405180602001604052806000815250905061258a565b6000604051806060016040528060408152602001615b23604091399050600060036002855161243691906149af565b6124409190614a3c565b600461244c9190614a6d565b9050600060208261245d91906149af565b67ffffffffffffffff81111561249c577f4e487b7100000000000000000000000000000000000000000000000000000000600052604160045260246000fd5b6040519080825280601f01601f1916602001820160405280156124ce5781602001600182028036833780820191505090505b509050818152600183018586518101602084015b81831015612549576003830192508251603f8160121c1685015160f81b8252600182019150603f81600c1c1685015160f81b8252600182019150603f8160061c1685015160f81b8252600182019150603f811685015160f81b8252600182019150506124e2565b60038951066001811461256357600281146125735761257e565b613d3d60f01b600283035261257e565b603d60f81b60018303525b50505050508093505050505b919050565b6000600860009054906101000a900473ffffffffffffffffffffffffffffffffffffffff16905081600860006101000a81548173ffffffffffffffffffffffffffffffffffffffff021916908373ffffffffffffffffffffffffffffffffffffffff1602179055508173ffffffffffffffffffffffffffffffffffffffff168173ffffffffffffffffffffffffffffffffffffffff167f8be0079c531659141344cd1fd0a4f28419497f9722a3daafe3b4186f6b6457e060405160405180910390a35050565b60006011600084815260200190815260200160002060009054906101000a900473ffffffffffffffffffffffffffffffffffffffff1690506000601260008581526020019081526020016000205490506126af82826129fa565b826013600083815260200190815260200160002081905550807faad5362ce528ed941024b95d4c18dfd49b8503e1f586a5c353631d98c2af41b7846040516126f791906148b5565b60405180910390a250505050565b612710848484611fb3565b61271c84848484612a18565b61275b576040517f08c379a0000000000000000000000000000000000000000000000000000000008152600401612752906145b5565b60405180910390fd5b50505050565b61276a82611da8565b6127a9576040517f08c379a00000000000000000000000000000000000000000000000000000000081526004016127a090614735565b60405180910390fd5b806006600084815260200190815260200160002090805190602001906127d0929190613007565b505050565b606060405180602001604052806000815250905090565b60606127f782611da8565b612836576040517f08c379a000000000000000000000000000000000000000000000000000000000815260040161282d90614815565b60405180910390fd5b60006128406127d5565b90506000815111612860576040518060200160405280600081525061288b565b8061286a84612baf565b60405160200161287b92919061419b565b6040516020818303038152906040525b915050919050565b60007f000000000000000000000000000000000000000000000000000000000000000073ffffffffffffffffffffffffffffffffffffffff16634000aea07f000000000000000000000000000000000000000000000000000000000000000084866000604051602001612907929190614525565b6040516020818303038152906040526040518463ffffffff1660e01b8152600401612934939291906144b1565b602060405180830381600087803b15801561294e57600080fd5b505af1158015612962573d6000803e3d6000fd5b505050506040513d601f19601f8201168201806040525081019061298691906133c9565b5060006129a9846000306007600089815260200190815260200160002054612d5c565b9050600160076000868152602001908152602001600020546129cb91906149af565b60076000868152602001908152602001600020819055506129ec8482612d98565b91505092915050565b505050565b612a14828260405180602001604052806000815250612dcb565b5050565b6000612a398473ffffffffffffffffffffffffffffffffffffffff16612e26565b15612ba2578373ffffffffffffffffffffffffffffffffffffffff1663150b7a02612a62611e14565b8786866040518563ffffffff1660e01b8152600401612a849493929190614465565b602060405180830381600087803b158015612a9e57600080fd5b505af1925050508015612acf57506040513d601f19601f82011682018060405250810190612acc9190613480565b60015b612b52573d8060008114612aff576040519150601f19603f3d011682016040523d82523d6000602084013e612b04565b606091505b50600081511415612b4a576040517f08c379a0000000000000000000000000000000000000000000000000000000008152600401612b41906145b5565b60405180910390fd5b805181602001fd5b63150b7a0260e01b7bffffffffffffffffffffffffffffffffffffffffffffffffffffffff1916817bffffffffffffffffffffffffffffffffffffffffffffffffffffffff191614915050612ba7565b600190505b949350505050565b60606000821415612bf7576040518060400160405280600181526020017f30000000000000000000000000000000000000000000000000000000000000008152509050612d57565b600082905060005b60008214612c29578080612c1290614c2b565b915050600a82612c229190614a3c565b9150612bff565b60008167ffffffffffffffff811115612c6b577f4e487b7100000000000000000000000000000000000000000000000000000000600052604160045260246000fd5b6040519080825280601f01601f191660200182016040528015612c9d5781602001600182028036833780820191505090505b5090505b60008514612d5057600182612cb69190614ac7565b9150600a85612cc59190614c88565b6030612cd191906149af565b60f81b818381518110612d0d577f4e487b7100000000000000000000000000000000000000000000000000000000600052603260045260246000fd5b60200101907effffffffffffffffffffffffffffffffffffffffffffffffffffffffffffff1916908160001a905350600a85612d499190614a3c565b9450612ca1565b8093505050505b919050565b600084848484604051602001612d75949392919061454e565b6040516020818303038152906040528051906020012060001c9050949350505050565b60008282604051602001612dad929190614158565b60405160208183030381529060405280519060200120905092915050565b612dd58383612e39565b612de26000848484612a18565b612e21576040517f08c379a0000000000000000000000000000000000000000000000000000000008152600401612e18906145b5565b60405180910390fd5b505050565b600080823b905060008111915050919050565b600073ffffffffffffffffffffffffffffffffffffffff168273ffffffffffffffffffffffffffffffffffffffff161415612ea9576040517f08c379a0000000000000000000000000000000000000000000000000000000008152600401612ea090614775565b60405180910390fd5b612eb281611da8565b15612ef2576040517f08c379a0000000000000000000000000000000000000000000000000000000008152600401612ee9906145f5565b60405180910390fd5b612efe600083836129f5565b6001600360008473ffffffffffffffffffffffffffffffffffffffff1673ffffffffffffffffffffffffffffffffffffffff1681526020019081526020016000206000828254612f4e91906149af565b92505081905550816002600083815260200190815260200160002060006101000a81548173ffffffffffffffffffffffffffffffffffffffff021916908373ffffffffffffffffffffffffffffffffffffffff160217905550808273ffffffffffffffffffffffffffffffffffffffff16600073ffffffffffffffffffffffffffffffffffffffff167fddf252ad1be2c89b69c2b068fc378daa952ba7f163c4a11628f55a4df523b3ef60405160405180910390a45050565b82805461301390614bc8565b90600052602060002090601f016020900481019282613035576000855561307c565b82601f1061304e57805160ff191683800117855561307c565b8280016001018555821561307c579182015b8281111561307b578251825591602001919060010190613060565b5b509050613089919061308d565b5090565b5b808211156130a657600081600090555060010161308e565b5090565b60006130bd6130b8846148f5565b6148d0565b9050828152602081018484840111156130d557600080fd5b6130e0848285614b86565b509392505050565b60006130fb6130f684614926565b6148d0565b90508281526020810184848401111561311357600080fd5b61311e848285614b86565b509392505050565b60008135905061313581615aaf565b92915050565b60008135905061314a81615ac6565b92915050565b60008151905061315f81615ac6565b92915050565b60008135905061317481615add565b92915050565b60008135905061318981615af4565b92915050565b60008151905061319e81615af4565b92915050565b600082601f8301126131b557600080fd5b81356131c58482602086016130aa565b91505092915050565b600082601f8301126131df57600080fd5b81356131ef8482602086016130e8565b91505092915050565b60008135905061320781615b0b565b92915050565b60008151905061321c81615b0b565b92915050565b60006020828403121561323457600080fd5b600061324284828501613126565b91505092915050565b6000806040838503121561325e57600080fd5b600061326c85828601613126565b925050602061327d85828601613126565b9150509250929050565b60008060006060848603121561329c57600080fd5b60006132aa86828701613126565b93505060206132bb86828701613126565b92505060406132cc868287016131f8565b9150509250925092565b600080600080608085870312156132ec57600080fd5b60006132fa87828801613126565b945050602061330b87828801613126565b935050604061331c878288016131f8565b925050606085013567ffffffffffffffff81111561333957600080fd5b613345878288016131a4565b91505092959194509250565b6000806040838503121561336457600080fd5b600061337285828601613126565b92505060206133838582860161313b565b9150509250929050565b600080604083850312156133a057600080fd5b60006133ae85828601613126565b92505060206133bf858286016131f8565b9150509250929050565b6000602082840312156133db57600080fd5b60006133e984828501613150565b91505092915050565b60006020828403121561340457600080fd5b600061341284828501613165565b91505092915050565b6000806040838503121561342e57600080fd5b600061343c85828601613165565b925050602061344d858286016131f8565b9150509250929050565b60006020828403121561346957600080fd5b60006134778482850161317a565b91505092915050565b60006020828403121561349257600080fd5b60006134a08482850161318f565b91505092915050565b6000602082840312156134bb57600080fd5b600082013567ffffffffffffffff8111156134d557600080fd5b6134e1848285016131ce565b91505092915050565b600080600080600060a0868803121561350257600080fd5b600086013567ffffffffffffffff81111561351c57600080fd5b613528888289016131ce565b9550506020613539888289016131f8565b945050604086013567ffffffffffffffff81111561355657600080fd5b613562888289016131ce565b935050606086013567ffffffffffffffff81111561357f57600080fd5b61358b888289016131ce565b925050608061359c888289016131f8565b9150509295509295909350565b6000602082840312156135bb57600080fd5b60006135c9848285016131f8565b91505092915050565b6000602082840312156135e457600080fd5b60006135f28482850161320d565b91505092915050565b600080600080600060a0868803121561361357600080fd5b6000613621888289016131f8565b955050602086013567ffffffffffffffff81111561363e57600080fd5b61364a888289016131ce565b945050604086013567ffffffffffffffff81111561366757600080fd5b613673888289016131ce565b935050606086013567ffffffffffffffff81111561369057600080fd5b61369c888289016131ce565b925050608086013567ffffffffffffffff8111156136b957600080fd5b6136c5888289016131ce565b9150509295509295909350565b60008060008060008060c087890312156136eb57600080fd5b60006136f989828a016131f8565b965050602087013567ffffffffffffffff81111561371657600080fd5b61372289828a016131ce565b955050604087013567ffffffffffffffff81111561373f57600080fd5b61374b89828a016131ce565b945050606087013567ffffffffffffffff81111561376857600080fd5b61377489828a016131ce565b935050608087013567ffffffffffffffff81111561379157600080fd5b61379d89828a016131ce565b92505060a06137ae89828a016131f8565b9150509295509295509295565b6137c481614afb565b82525050565b6137d381614b0d565b82525050565b6137e281614b19565b82525050565b6137f96137f482614b19565b614c74565b82525050565b600061380a8261496c565b6138148185614982565b9350613824818560208601614b95565b61382d81614d75565b840191505092915050565b600061384382614977565b61384d8185614993565b935061385d818560208601614b95565b61386681614d75565b840191505092915050565b600061387c82614977565b61388681856149a4565b9350613896818560208601614b95565b80840191505092915050565b600081546138af81614bc8565b6138b981866149a4565b945060018216600081146138d457600181146138e557613918565b60ff19831686528186019350613918565b6138ee85614957565b60005b83811015613910578154818901526001820191506020810190506138f1565b838801955050505b50505092915050565b600061392e6008836149a4565b915061393982614d86565b600882019050919050565b6000613951604d836149a4565b915061395c82614daf565b604d82019050919050565b6000613974603283614993565b915061397f82614e24565b604082019050919050565b6000613997602683614993565b91506139a282614e73565b604082019050919050565b60006139ba601c83614993565b91506139c582614ec2565b602082019050919050565b60006139dd6002836149a4565b91506139e882614eeb565b600282019050919050565b6000613a006008836149a4565b9150613a0b82614f14565b600882019050919050565b6000613a236024836149a4565b9150613a2e82614f3d565b602482019050919050565b6000613a46602f83614993565b9150613a5182614f8c565b604082019050919050565b6000613a69602483614993565b9150613a7482614fdb565b604082019050919050565b6000613a8c601983614993565b9150613a978261502a565b602082019050919050565b6000613aaf6018836149a4565b9150613aba82615053565b601882019050919050565b6000613ad2601883614993565b9150613add8261507c565b602082019050919050565b6000613af56019836149a4565b9150613b00826150a5565b601982019050919050565b6000613b18602c83614993565b9150613b23826150ce565b604082019050919050565b6000613b3b6018836149a4565b9150613b468261511d565b601882019050919050565b6000613b5e6001836149a4565b9150613b6982615146565b600182019050919050565b6000613b81603883614993565b9150613b8c8261516f565b604082019050919050565b6000613ba46001836149a4565b9150613baf826151be565b600182019050919050565b6000613bc7601983614993565b9150613bd2826151e7565b602082019050919050565b6000613bea6004836149a4565b9150613bf582615210565b600482019050919050565b6000613c0d602a83614993565b9150613c1882615239565b604082019050919050565b6000613c30602983614993565b9150613c3b82615288565b604082019050919050565b6000613c53602e83614993565b9150613c5e826152d7565b604082019050919050565b6000613c766006836149a4565b9150613c8182615326565b600682019050919050565b6000613c99602083614993565b9150613ca48261534f565b602082019050919050565b6000613cbc6002836149a4565b9150613cc782615378565b600282019050919050565b6000613cdf602083614993565b9150613cea826153a1565b602082019050919050565b6000613d026001836149a4565b9150613d0d826153ca565b600182019050919050565b6000613d25603183614993565b9150613d30826153f3565b604082019050919050565b6000613d486002836149a4565b9150613d5382615442565b600282019050919050565b6000613d6b6011836149a4565b9150613d768261546b565b601182019050919050565b6000613d8e6004836149a4565b9150613d9982615494565b600482019050919050565b6000613db1602c83614993565b9150613dbc826154bd565b604082019050919050565b6000613dd46003836149a4565b9150613ddf8261550c565b600382019050919050565b6000613df7600c836149a4565b9150613e0282615535565b600c82019050919050565b6000613e1a602083614993565b9150613e258261555e565b602082019050919050565b6000613e3d602983614993565b9150613e4882615587565b604082019050919050565b6000613e60601a836149a4565b9150613e6b826155d6565b601a82019050919050565b6000613e836007836149a4565b9150613e8e826155ff565b600782019050919050565b6000613ea6602f83614993565b9150613eb182615628565b604082019050919050565b6000613ec96001836149a4565b9150613ed482615677565b600182019050919050565b6000613eec600f836149a4565b9150613ef7826156a0565b600f82019050919050565b6000613f0f601f83614993565b9150613f1a826156c9565b602082019050919050565b6000613f32602183614993565b9150613f3d826156f2565b604082019050919050565b6000613f556002836149a4565b9150613f6082615741565b600282019050919050565b6000613f78609e836149a4565b9150613f838261576a565b609e82019050919050565b6000613f9b6007836149a4565b9150613fa68261582b565b600782019050919050565b6000613fbe603183614993565b9150613fc982615854565b604082019050919050565b6000613fe16003836149a4565b9150613fec826158a3565b600382019050919050565b6000614004604783614993565b915061400f826158cc565b606082019050919050565b60006140276015836149a4565b915061403282615941565b601582019050919050565b600061404a6003836149a4565b91506140558261596a565b600382019050919050565b600061406d600a836149a4565b915061407882615993565b600a82019050919050565b60006140906002836149a4565b915061409b826159bc565b600282019050919050565b60006140b36034836149a4565b91506140be826159e5565b603482019050919050565b60006140d66015836149a4565b91506140e182615a34565b601582019050919050565b60006140f96006836149a4565b915061410482615a5d565b600682019050919050565b600061411c6012836149a4565b915061412782615a86565b601282019050919050565b61413b81614b6f565b82525050565b61415261414d82614b6f565b614c7e565b82525050565b600061416482856137e8565b6020820191506141748284614141565b6020820191508190509392505050565b60006141908284613871565b915081905092915050565b60006141a78285613871565b91506141b38284613871565b91508190509392505050565b60006141ca82613f6b565b91506141d582613d5e565b91506141e0826140c9565b91506141eb82613e53565b91506141f78289613871565b9150614202826139d0565b915061420d8261410f565b9150614218826139f3565b915061422382613f8e565b915061422e82613c69565b915061423a8288613871565b915061424582613b51565b91506142518287613871565b915061425c82613e76565b915061426782613a16565b91506142738286613871565b915061427e82614083565b915061428a8285613871565b915061429582613921565b91506142a0826140a6565b91506142ab82613dc7565b91506142b78284613871565b91506142c282613bdd565b91506142cd826140ec565b9150819050979650505050505050565b60006142e88261401a565b91506142f4828a613871565b91506142ff82613f48565b915061430b8289613871565b915061431682613fd4565b915061432182613944565b915061432d8288613871565b915061433882613d81565b915061434382613edf565b915061434e82613ebc565b915061435982613aa2565b915061436482613dea565b915061437082876138a2565b915061437b82613b97565b91506143868261403d565b915061439182613ebc565b915061439c82613b2e565b91506143a782613dea565b91506143b382866138a2565b91506143be82613b97565b91506143c98261403d565b91506143d482613ebc565b91506143df82613ae8565b91506143ea82613dea565b91506143f682856138a2565b915061440182613b97565b915061440c82613cf5565b915061441782613d3b565b915061442282614060565b915061442e8284613871565b915061443982613caf565b915081905098975050505050505050565b600060208201905061445f60008301846137bb565b92915050565b600060808201905061447a60008301876137bb565b61448760208301866137bb565b6144946040830185614132565b81810360608301526144a681846137ff565b905095945050505050565b60006060820190506144c660008301866137bb565b6144d36020830185614132565b81810360408301526144e581846137ff565b9050949350505050565b600060208201905061450460008301846137ca565b92915050565b600060208201905061451f60008301846137d9565b92915050565b600060408201905061453a60008301856137d9565b6145476020830184614132565b9392505050565b600060808201905061456360008301876137d9565b6145706020830186614132565b61457d60408301856137bb565b61458a6060830184614132565b95945050505050565b600060208201905081810360008301526145ad8184613838565b905092915050565b600060208201905081810360008301526145ce81613967565b9050919050565b600060208201905081810360008301526145ee8161398a565b9050919050565b6000602082019050818103600083015261460e816139ad565b9050919050565b6000602082019050818103600083015261462e81613a39565b9050919050565b6000602082019050818103600083015261464e81613a5c565b9050919050565b6000602082019050818103600083015261466e81613a7f565b9050919050565b6000602082019050818103600083015261468e81613ac5565b9050919050565b600060208201905081810360008301526146ae81613b0b565b9050919050565b600060208201905081810360008301526146ce81613b74565b9050919050565b600060208201905081810360008301526146ee81613bba565b9050919050565b6000602082019050818103600083015261470e81613c00565b9050919050565b6000602082019050818103600083015261472e81613c23565b9050919050565b6000602082019050818103600083015261474e81613c46565b9050919050565b6000602082019050818103600083015261476e81613c8c565b9050919050565b6000602082019050818103600083015261478e81613cd2565b9050919050565b600060208201905081810360008301526147ae81613d18565b9050919050565b600060208201905081810360008301526147ce81613da4565b9050919050565b600060208201905081810360008301526147ee81613e0d565b9050919050565b6000602082019050818103600083015261480e81613e30565b9050919050565b6000602082019050818103600083015261482e81613e99565b9050919050565b6000602082019050818103600083015261484e81613f02565b9050919050565b6000602082019050818103600083015261486e81613f25565b9050919050565b6000602082019050818103600083015261488e81613fb1565b9050919050565b600060208201905081810360008301526148ae81613ff7565b9050919050565b60006020820190506148ca6000830184614132565b92915050565b60006148da6148eb565b90506148e68282614bfa565b919050565b6000604051905090565b600067ffffffffffffffff8211156149105761490f614d46565b5b61491982614d75565b9050602081019050919050565b600067ffffffffffffffff82111561494157614940614d46565b5b61494a82614d75565b9050602081019050919050565b60008190508160005260206000209050919050565b600081519050919050565b600081519050919050565b600082825260208201905092915050565b600082825260208201905092915050565b600081905092915050565b60006149ba82614b6f565b91506149c583614b6f565b9250827fffffffffffffffffffffffffffffffffffffffffffffffffffffffffffffffff038211156149fa576149f9614cb9565b5b828201905092915050565b6000614a1082614b79565b9150614a1b83614b79565b92508260ff03821115614a3157614a30614cb9565b5b828201905092915050565b6000614a4782614b6f565b9150614a5283614b6f565b925082614a6257614a61614ce8565b5b828204905092915050565b6000614a7882614b6f565b9150614a8383614b6f565b9250817fffffffffffffffffffffffffffffffffffffffffffffffffffffffffffffffff0483118215151615614abc57614abb614cb9565b5b828202905092915050565b6000614ad282614b6f565b9150614add83614b6f565b925082821015614af057614aef614cb9565b5b828203905092915050565b6000614b0682614b4f565b9050919050565b60008115159050919050565b6000819050919050565b60007fffffffff0000000000000000000000000000000000000000000000000000000082169050919050565b600073ffffffffffffffffffffffffffffffffffffffff82169050919050565b6000819050919050565b600060ff82169050919050565b82818337600083830152505050565b60005b83811015614bb3578082015181840152602081019050614b98565b83811115614bc2576000848401525b50505050565b60006002820490506001821680614be057607f821691505b60208210811415614bf457614bf3614d17565b5b50919050565b614c0382614d75565b810181811067ffffffffffffffff82111715614c2257614c21614d46565b5b80604052505050565b6000614c3682614b6f565b91507fffffffffffffffffffffffffffffffffffffffffffffffffffffffffffffffff821415614c6957614c68614cb9565b5b600182019050919050565b6000819050919050565b6000819050919050565b6000614c9382614b6f565b9150614c9e83614b6f565b925082614cae57614cad614ce8565b5b828206905092915050565b7f4e487b7100000000000000000000000000000000000000000000000000000000600052601160045260246000fd5b7f4e487b7100000000000000000000000000000000000000000000000000000000600052601260045260246000fd5b7f4e487b7100000000000000000000000000000000000000000000000000000000600052602260045260246000fd5b7f4e487b7100000000000000000000000000000000000000000000000000000000600052604160045260246000fd5b6000601f19601f8301169050919050565b7f3c2f7469746c653e000000000000000000000000000000000000000000000000600082015250565b7f226465736372697074696f6e223a202254686973206973206120756e6971756560008201527f20626c6f636b636861696e2067656e657261746564204e46542e204179656b6960208201527f6c756173205365726965732e2000000000000000000000000000000000000000604082015250565b7f4552433732313a207472616e7366657220746f206e6f6e20455243373231526560008201527f63656976657220696d706c656d656e7465720000000000000000000000000000602082015250565b7f4f776e61626c653a206e6577206f776e657220697320746865207a65726f206160008201527f6464726573730000000000000000000000000000000000000000000000000000602082015250565b7f4552433732313a20746f6b656e20616c7265616479206d696e74656400000000600082015250565b7f3b7d000000000000000000000000000000000000000000000000000000000000600082015250565b7f3c2f7374796c653e000000000000000000000000000000000000000000000000600082015250565b7f3c7469746c652069643d226179656b696c75615469746c65223e4179656b696c60008201527f7561202300000000000000000000000000000000000000000000000000000000602082015250565b7f4e65656420746f207761697420666f722074686520436861696e6c696e6b206e60008201527f6f646520746f20726573706f6e64210000000000000000000000000000000000602082015250565b7f4552433732313a207472616e7366657220746f20746865207a65726f2061646460008201527f7265737300000000000000000000000000000000000000000000000000000000602082015250565b7f4552433732313a20617070726f766520746f2063616c6c657200000000000000600082015250565b7f20202274726169745f74797065223a202242617365222c200000000000000000600082015250565b7f746f6b656e55524920697320616c726561647920736574210000000000000000600082015250565b7f20202274726169745f74797065223a20224d6f757468222c2000000000000000600082015250565b7f4552433732313a206f70657261746f7220717565727920666f72206e6f6e657860008201527f697374656e7420746f6b656e0000000000000000000000000000000000000000602082015250565b7f20202274726169745f74797065223a202245796573222c200000000000000000600082015250565b7f2000000000000000000000000000000000000000000000000000000000000000600082015250565b7f4552433732313a20617070726f76652063616c6c6572206973206e6f74206f7760008201527f6e6572206e6f7220617070726f76656420666f7220616c6c0000000000000000602082015250565b7f2200000000000000000000000000000000000000000000000000000000000000600082015250565b7f4e65656420746f207365656e6420302e30323520636f696e7300000000000000600082015250565b7f22202f3e00000000000000000000000000000000000000000000000000000000600082015250565b7f4552433732313a2062616c616e636520717565727920666f7220746865207a6560008201527f726f206164647265737300000000000000000000000000000000000000000000602082015250565b7f4552433732313a206f776e657220717565727920666f72206e6f6e657869737460008201527f656e7420746f6b656e0000000000000000000000000000000000000000000000602082015250565b7f45524337323155524953746f726167653a2055524920736574206f66206e6f6e60008201527f6578697374656e7420746f6b656e000000000000000000000000000000000000602082015250565b7f3c646573633e0000000000000000000000000000000000000000000000000000600082015250565b7f546f6b656e496420686173206e6f74206265656e206d696e7465642079657421600082015250565b7f227d000000000000000000000000000000000000000000000000000000000000600082015250565b7f4552433732313a206d696e7420746f20746865207a65726f2061646472657373600082015250565b7f7d00000000000000000000000000000000000000000000000000000000000000600082015250565b7f45524337323155524953746f726167653a2055524920717565727920666f722060008201527f6e6f6e6578697374656e7420746f6b656e000000000000000000000000000000602082015250565b7f5d2c000000000000000000000000000000000000000000000000000000000000600082015250565b7f3c646566732069643d226465667334223e000000000000000000000000000000600082015250565b7f20222c2000000000000000000000000000000000000000000000000000000000600082015250565b7f4552433732313a20617070726f76656420717565727920666f72206e6f6e657860008201527f697374656e7420746f6b656e0000000000000000000000000000000000000000602082015250565b7f643d220000000000000000000000000000000000000000000000000000000000600082015250565b7f20202276616c7565223a20220000000000000000000000000000000000000000600082015250565b7f4f776e61626c653a2063616c6c6572206973206e6f7420746865206f776e6572600082015250565b7f4552433732313a207472616e73666572206f6620746f6b656e2074686174206960008201527f73206e6f74206f776e0000000000000000000000000000000000000000000000602082015250565b7f2e6179656b696c7561535647436f6c6f72207b66696c6c3a2023000000000000600082015250565b7f3c2f646573633e00000000000000000000000000000000000000000000000000600082015250565b7f4552433732314d657461646174613a2055524920717565727920666f72206e6f60008201527f6e6578697374656e7420746f6b656e0000000000000000000000000000000000602082015250565b7f7b00000000000000000000000000000000000000000000000000000000000000600082015250565b7f2261747472696275746573223a205b0000000000000000000000000000000000600082015250565b7f4f6e6c7920565246436f6f7264696e61746f722063616e2066756c66696c6c00600082015250565b7f4552433732313a20617070726f76616c20746f2063757272656e74206f776e6560008201527f7200000000000000000000000000000000000000000000000000000000000000602082015250565b7f2e20000000000000000000000000000000000000000000000000000000000000600082015250565b7f3c73766720786d6c6e733a7376673d22687474703a2f2f7777772e77332e6f7260008201527f672f323030302f7376672220786d6c6e733d22687474703a2f2f7777772e773360208201527f2e6f72672f323030302f73766722206865696768743d2233353022207769647460408201527f683d22333530222076657273696f6e3d22312e31222076696577426f783d223060608201527f20302031373520333530222069643d226179656b696c75615f737667223e0000608082015250565b7f3c2f646566733e00000000000000000000000000000000000000000000000000600082015250565b7f4552433732313a207472616e736665722063616c6c6572206973206e6f74206f60008201527f776e6572206e6f7220617070726f766564000000000000000000000000000000602082015250565b7f222c200000000000000000000000000000000000000000000000000000000000600082015250565b7f4e6f7420656e6f756768204c494e4b20696e2074686520636f6e74726163742060008201527f6164647265737320746f2070726f636573732072616e646f6d6e65737320726560208201527f7175657374732e00000000000000000000000000000000000000000000000000604082015250565b7f7b226e616d65223a20224179656b696c75617320230000000000000000000000600082015250565b7f7d2c200000000000000000000000000000000000000000000000000000000000600082015250565b7f22696d616765223a202200000000000000000000000000000000000000000000600082015250565b7f3a20000000000000000000000000000000000000000000000000000000000000600082015250565b7f3c706174682069643d226179656b696c7561535647506174682220636c61737360008201527f3d226179656b696c7561535647436f6c6f722220000000000000000000000000602082015250565b7f3c7374796c652069643d227374796c65535647223e0000000000000000000000600082015250565b7f3c2f7376673e0000000000000000000000000000000000000000000000000000600082015250565b7f626f6479207b66696c6c3a20236666663b7d0000000000000000000000000000600082015250565b615ab881614afb565b8114615ac357600080fd5b50565b615acf81614b0d565b8114615ada57600080fd5b50565b615ae681614b19565b8114615af157600080fd5b50565b615afd81614b23565b8114615b0857600080fd5b50565b615b1481614b6f565b8114615b1f57600080fd5b5056fe4142434445464748494a4b4c4d4e4f505152535455565758595a6162636465666768696a6b6c6d6e6f707172737475767778797a303132333435363738392b2fa2646970667358221220e1d957f5835888ab91db2bf52f7707820b69edf057c27773c588f64229a82c8164736f6c63430008040033",
  "linkReferences": {},
  "deployedLinkReferences": {}
}